:1000000014C1000040C100003EC100003CC100001E
:100010003AC1000038C1000036C1000034C1000000
:1000200032C1000030C100002EC100002CC1000010
:100030002AC1000028C1000026C1000024C1000020
:1000400022C1000020C100001EC100001CC1000030
:100050001AC1000018C1000016C100003CC4000015
:1000600012C1000010C100000EC100000CC1000050
:100070000AC1000008C1000006C1000004C1000060
:1000800002C1000000C10000FEC00000FCC0000072
:10009000FAC00000F8C00000F6C0000066C400000E
:1000A000F2C00000F0C00000EEC00000ECC0000094
:1000B000EAC00000E8C00000E6C00000E4C00000A4
:1000C000E2C00000E0C00000DEC00000DCC00000B4
:1000D000DAC00000D8C00000D6C00000D4C00000C4
:1000E000D2C000005E016101500154015A01980123
:1000F000650169016F01730177017D01810185014E
:1001000098018B018F01930100002100240027003A
:100110002A002D0030003300010100000401070116
:100120000A0100002200250028002B002E003100CB
:10013000340002010000050108010B01000020004D
:100140002300260029002C002F00320000010000AF
:10015000030106010901050505050705080808084A
:10016000020202020A0A080804040404010101014F
:10017000010101010303030303030303040707074A
:100180000C0C0C0C0C0C0C0C0202020206060606EF
:10019000060606060B0B0B0B0B0B0B0B01021020BC
:1001A00020080810204010204080020102010804AD
:1001B0000201010204081020408080402010080441
:1001C000020180040201804020100804020108049A
:1001D00002010102040810204080010204081020DE
:1001E000408000000A0B02090C0D0E0807030401F1
:1001F00000000000000000000000000000000000FF
:1002000000000000000000000000000000001211CB
:1002100010000000000000000000000000000000CE
:100220000000000000000000E60511241FBECFEF13
:10023000D1E2DEBFCDBF00E00CBF12E0A0E0B2E033
:10024000E0EFFFE000E00BBF02C007900D92A6397F
:10025000B107D9F723E0A6E9B2E001C01D92AD369F
:10026000B207E1F711E0C5E1D1E000E005C0219758
:100270000109802FFE01AED6C431D10780E0080706
:10028000B1F7C4D4B3C6BCCE90E0FC013197E231E3
:10029000F10508F04DC08827EE58FF4F8F4F9AC6E2
:1002A000809180008F7703C0809180008F7D809344
:1002B0008000089580918000877FF9CF84B58F7783
:1002C00002C084B58F7D84BD08958091B0008F7782
:1002D00003C08091B0008F7D8093B000089580911D
:1002E00090008F7707C0809190008F7D03C0809130
:1002F0009000877F8093900008958091A0008F7771
:1003000007C08091A0008F7D03C08091A000877FEF
:100310008093A0000895809120018F7707C080917D
:1003200020018F7D03C080912001877F8093200171
:100330000895CF93DF93282F30E0F901EE51FE4F5F
:100340008491F901E456FE4FD491F901EA5AFE4F27
:10035000C491CC2389F0811197DFEC2FF0E0EE0FF0
:10036000FF1FE45CFE4FA591B491EC91ED2381E079
:1003700090E021F480E002C080E090E0DF91CF9136
:1003800008951F93CF93DF93282F30E0F901EE51AA
:10039000FE4F8491F901E456FE4FD491F901EA5AD7
:1003A000FE4FC491CC23B9F0162F81116DDFEC2FD5
:1003B000F0E0EE0FFF1FEE5DFE4FA591B4919FB7E9
:1003C000F894111104C08C91D095D82302C0EC91FF
:1003D000DE2BDC939FBFDF91CF911F910895CF93C8
:1003E000DF9390E0FC01E456FE4F2491FC01EA5AB1
:1003F000FE4F8491882361F190E0880F991FFC01E2
:10040000E85FFE4FC591D491FC01EE5DFE4FA591D2
:10041000B491611109C09FB7F89488812095822317
:100420008883EC912E230BC0623061F49FB7F8945F
:100430008881322F309583238883EC912E2B2C9347
:100440009FBF06C08FB7F894E8812E2B28838FBFFB
:10045000DF91CF9108953FB7F89480915103909127
:100460005203A0915303B091540326B5A89B05C035
:100470002F3F19F00196A11DB11D3FBFBA2FA92F23
:10048000982F8827820F911DA11DB11DBC01CD01A0
:1004900042E0660F771F881F991F4A95D1F708958C
:1004A0008F929F92AF92BF92CF92DF92EF92FF9284
:1004B0006B017C01D0DF4B015C01C114D104E1046C
:1004C000F104E9F0C8DFDC01CB0188199909AA0918
:1004D000BB09883E9340A105B10578F321E0C21A1B
:1004E000D108E108F10888EE880E83E0981EA11C6F
:1004F000B11CC114D104E104F10421F7DECFFF9057
:10050000EF90DF90CF90BF90AF909F908F90089525
:1005100008950895CF92DF92EF92FF920F931F9369
:10052000CF93DF936C017A018B01C0E0D0E0CE1550
:10053000DF0581F0D8016D918D01D601ED91FC911F
:100540000190F081E02DC6011995892B11F02196BB
:10055000EECF7E01C701DF91CF911F910F91FF90E8
:10056000EF90DF90CF90089585ED8093BC0080914F
:10057000BC0084FDFCCF1092450308954091D60243
:10058000262F30E0240F311D21323105DCF420917B
:1005900045032430C9F4FC0180E090E0861758F44C
:1005A0003091D6022191DC01AA54BD4FA30FB11D99
:1005B0002C930196F3CF8091D602680F6093D602F8
:1005C00080E0089581E0089582E008950895E09123
:1005D000490380914803E81730F4F0E0EA56FD4FF4
:1005E000808190E008958FEF9FEF089590914903E7
:1005F00080914803981750F4E92FF0E0EA56FD4F38
:10060000208130E09F5F9093490302C02FEF3FEFBE
:10061000C90108958091480390E020914903821B0D
:1006200091090895CF92DF92EF92FF920F931F935B
:10063000CF93DF937C01CB018A0120911D032223FC
:1006400089F0EB016B01C40ED51ECC15DD0561F000
:100650006991D701ED91FC910190F081E02DC701E6
:100660001995F3CF642F8ADFC801DF91CF911F91D5
:100670000F91FF90EF90DF90CF900895CF93DF938D
:100680001F92CDB7DEB7698320911D032223D1F0DD
:1006900020914603203240F021E030E0FC0133831A
:1006A000228380E090E014C080914703E82FF0E0BF
:1006B000E25EFC4F998190838F5F80934703809324
:1006C000460304C061E0CE01019658DF81E090E06E
:1006D0000F90DF91CF910895CF93FC01C48121E069
:1006E00020931D03C0933E031092470310924603CC
:1006F0008385682B85E593E0C1DF909146039132B5
:1007000008F045C0809145038111FCCF82E08093C1
:10071000450381E0809344038FEF80931C03109284
:100720001B0390931A03AEE1B3E0EAEFF2E080E03E
:10073000981721F02D9121938F5FFACF1092F90233
:100740008091F902CC0FC82BC093F902809143032A
:10075000813061F4109243038091F9028093BB00D1
:100760008091BC0083FDF8CF85EC01C085EE8093BD
:10077000BC00809145038230E1F380911C038F3FE0
:1007800031F080911C03803211F080911C03109293
:1007900047031092460310921D03CF9108950F93C3
:1007A0001F93CF938C01C62F97DF6C2F6460C80115
:1007B00093DF6C2F6B7FC8018FDF83EC90E0019794
:1007C000F1F7CF911F910F9108950F931F93CF933E
:1007D000DF938C01C62FD42F607F642BE0DF80E194
:1007E000C89FB00111246D2BC801DF91CF911F91DB
:1007F0000F91D5CFCF93DF93CDB7DEB728970FB644
:10080000F894DEBF0FBECDBF98E0E2E0F2E0DE017B
:10081000119601900D929A95E1F7909169039617C0
:1008200010F46FEF690FFE013196E60FF11DE60F30
:10083000F11D6081680F606840E081E693E02896D2
:100840000FB6F894DEBF0FBECDBFDF91CF91BDCF05
:1008500040E061E081E693E0B8DF8BE39FE1019740
:10086000F1F7089541E0B1DF81E090E00895089547
:1008700080E090E00895CF93DF93EC01CC0FDD1F73
:10088000FE01E05CFD4F60818AE07BDDFE01E25D00
:10089000FD4F60818BE075DDFE01E45EFD4F608100
:1008A0008CE06FDDC65FDD4F68818DE0DF91CF9119
:1008B00068CD009761F0FC0101900020E9F73197C5
:1008C000AF01481B590BBC0181E693E023CE80E0C9
:1008D00090E0089587D31F920F920FB60F921124C4
:1008E0002F933F938F939F93AF93BF9380914D032B
:1008F00090914E03A0914F03B091500330914C035F
:1009000023E0230F2D3720F40196A11DB11D05C052
:1009100026E8230F0296A11DB11D20934C0380935E
:100920004D0390934E03A0934F03B09350038091D7
:10093000510390915203A0915303B0915403019637
:10094000A11DB11D8093510390935203A0935303B3
:10095000B0935403BF91AF919F918F913F912F918D
:100960000F900FBE0F901F9018951F920F920FB609
:100970000F9211240BB60F922F933F934F935F93D7
:100980006F937F938F939F93AF93BF93EF93FF9357
:100990008091B900887F803609F49CC068F5883260
:1009A00009F45BC090F4803109F454C038F4882312
:1009B00009F4F6C0883009F44DC0F5C0883109F457
:1009C0004CC0803209F45DC0EEC0803409F468C0C8
:1009D00048F4803309F455C0883309F0E4C08093AB
:1009E0001C03D8C0803509F44FC0883509F45DC0B8
:1009F000883409F0D8C0D6C0883909F4C7C0A8F433
:100A0000883709F467C038F4883609F463C0803742
:100A100009F460C0C8C0883809F4B8C0803909F446
:100A20005FC0803809F0BFC05BC0803B09F486C05E
:100A300038F4803A09F466C0883A09F47FC0B3C03C
:100A4000803C09F4A7C0883C09F4A4C0883B09F4A1
:100A50008AC0A9C08091F90210C090911B038091B7
:100A60001A03981770F5E0911B0381E08E0F8093B5
:100A70001B03F0E0E650FD4F80818093BB0085ECC6
:100A800086C080931C038EC0E0911B0381E08E0F13
:100A900080931B038091BB00F0E0E650FD4F808304
:100AA00090911B0380911A036EC0E0911B0381E0BB
:100AB0008E0F80931B038091BB00F0E0E650FD4F4A
:100AC00080838091440381116DC081E08093430352
:100AD00084EA61C083E0809345031092F802CFCF8F
:100AE0008091F802803208F051C0E091F80281E074
:100AF0008E0F8093F8028091BB00F0E0E852FD4F2A
:100B00008083BDCF85EC8093BC001092450380911B
:100B1000F802803230F4E091F802F0E0E852FD4F44
:100B200010826091F80270E0E0913F03F091400381
:100B300088ED92E019951092F80235C084E0809318
:100B400045031092D7021092D602E0914103F09132
:100B5000420319958091D602811105C081E08093EE
:100B6000D6021092B602E091D70281E08E0F8093F8
:100B7000D702F0E0EA54FD4F80818093BB00909152
:100B8000D7028091D602981708F479CF85E8809330
:100B9000BC0009C085EC8093BC001092450303C0E3
:100BA00010921C03E1DCFF91EF91BF91AF919F91F7
:100BB0008F917F916F915F914F913F912F910F9006
:100BC0000BBE0F900FBE0F901F901895E5E5F3E058
:100BD0001382128288EE93E0A0E0B0E084839583D4
:100BE000A683B78386E592E091838083E1E6F3E014
:100BF0001382128288E692E09183808387E2848365
:100C000084E1818784E0828713860895789484B58F
:100C1000826084BD84B5816084BD85B5826085BDF8
:100C200085B5816085BD80916E00816080936E0086
:100C30001092810080918100826080938100809178
:100C40008100816080938100809180008160809329
:100C500080008091B10084608093B1008091B000E9
:100C600081608093B00080919100826080939100B8
:100C700080919100816080939100809190008160CB
:100C8000809390008091A10082608093A100809168
:100C9000A10081608093A1008091A0008160809379
:100CA000A000809121018260809321018091210127
:100CB00081608093210180912001816080932001D7
:100CC00080917A00846080937A0080917A008260BB
:100CD00080937A0080917A00816080937A0080917D
:100CE0007A00806880937A001092C10061E08AE007
:100CF00076DB61E08BE073DB61E08CE070DB61E070
:100D00008DE06DDB62E082E06ADB62E083E067DB5E
:100D100062E084E064DB62E088E061DB62E089E05D
:100D20005EDB109249031092480310924703109221
:100D300046031092450381E08093440310924303DD
:100D400061E084E11EDB61E085E11BDB8091B9009D
:100D50008E7F8093B9008091B9008D7F8093B90018
:100D600088E48093B80085E48093BC0088E892E032
:100D7000909342038093410389E892E0909340036B
:100D800080933F031092660380916B03823018F0CA
:100D900098E0909366038093690362E370E080E0DB
:100DA00090E07EDB60916C0381E693E095DC68EE79
:100DB00073E080E090E074DB60E381E693E0EFDCD9
:100DC000CBE4D6E4CE010197F1F760E381E693E04E
:100DD000E6DC2197F1F760E381E693E0E0DC83E570
:100DE00092E00197F1F760E281E693E0D8DC609150
:100DF0006603606240E081E693E0E7DC84E0809394
:100E0000670340E06CE081E693E0DFDC21DD82E017
:100E10008093680340E066E081E693E0D6DC40E042
:100E200062E081E693E0D1DC8BE39FE10197F1F78B
:100E300088E080936C0360E081E693E04DDC60E045
:100E400085E0D8DC80E792E034DD00E010E0C2E02D
:100E5000D0E0EE24E394F12C97E0C92ED12C88E069
:100E600068DA892B21F482E064DA892B21F189E0A8
:100E700060DA892B29F484E05CDA892B09F461C0FB
:100E800084E057DA892B29F488E053DA019709F4D2
:100E900058C0A0900002B0900102A114B10409F45E
:100EA0005BC082E046DA892B09F06CC089E041DA48
:100EB000019709F067C01092010210920002C8DC8D
:100EC00060E085E097DC84E892E0F3DC809100024A
:100ED00090910102009731F480914A0390914B0365
:100EE000019607C0019751F480914A0390914B03FA
:100EF000019790934B0380934A0302C088E090E0EF
:100F0000BADC80914A0390914B03089724F0109229
:100F10004B0310924A0380914A0390914B0397FF31
:100F200004C0D0924B03C0924A0361E070E080E0BD
:100F300090E0B6DA0115110509F491CF0E94000086
:100F40008ECFF0920102E092000282DC60E085E048
:100F500051DC80E992E0B9CF89E0EBD9892B09F027
:100F6000A0CFD0930102C093000272DC60E085E064
:100F700041DC87E792E09DDC61E081E03BDC8CE7CF
:100F800092E0A3CFAA94AB28A9F488E0D2D9892B08
:100F900089F4D0930102C09300025ADC60E085E03E
:100FA00029DC87E792E085DC61E081E023DC88E8EA
:100FB00092E08BCF83E0BDD9892B09F087CFD09306
:100FC0000102C093000244DC60E085E013DC87E7A7
:100FD00092E07BCFEE0FFF1F881F8BBF0790F6912B
:100FE000E02D199481E090E0F89400C0F894FFCFD0
:100FF0000200000040001400540001000100000045
:1010000000000000000000000100000000000100DE
:1010100001000100000000000000000000000000CE
:1010200000000000010001000100000000000000BD
:1010300000000000000000000000010001000100AD
:101040000000000000003E0312033804E6020A0319
:10105000F602E7020000000032048A023804370476
:10106000576974616A210073746F70006772616EF2
:1010700069636120646F6C006772616E69636120EF
:06108000676F72610000C1
:00000001FF
